:100000000C94BB000C94D0000C94D0000C94D00045
:100010000C94D0000C94D0000C94D0000C94D00020
:100020000C94D0000C94D0000C94D0000C94D00010
:100030000C94D0000C94D0000C94D0000C94D00000
:100040000C94D0000C94D0000C94D0000C94D000F0
:100050000C94D0007E078D07D007AF07D007D007DC
:10006000D007D906DE061007510760076F07420761
:1000700047074C076E616E00696E660000407A109B
:10008000F35A00A0724E18090010A5D4E80000E849
:100090007648170000E40B54020000CA9A3B0000A7
:1000A00000E1F505000080969800000040420F0036
:1000B0000000A08601000000102700000000E803F7
:1000C000000000006400000000000A0000000000C2
:1000D0000100000000002C76D888DC674F0823DF81
:1000E000C1DFAE59E1B1B796E5E3E453C63AE65154
:1000F000997696E8E6C28426EB898C9B62ED407C7B
:100100006FFCEFBC9C9F40F2BAA56FA5F490055A16
:100110002AF75C936B6CF9676DC11BFCE0E40D473B
:10012000FEF520E6B500D0ED902E0300943577055E
:100130000080841E080000204E0A000000C80C3316
:100140003333330F986E12831141EF8D2114893BA5
:10015000E65516CFFEE6DB18D1844B381BF77C1D25
:10016000901DA4BBE424203284725E228100C9F178
:1001700024ECA1E53D2711241FBECFE5D8E0DEBF6A
:10018000CDBF10E0A0E6B0E0E0E9FEE102C00590DE
:100190000D92AA3EB107D9F70E94B6060C94460FFD
:1001A0000C940000FC0129C0907F95BB9BB390612B
:1001B0009BBB9BB390629BBB8FE097E20197F1F7EB
:1001C00000C000009BB39F7D9BBB219190E1299FC4
:1001D0009001112425BB9BB390629BBB8FE097E2FB
:1001E0000197F1F700C000009BB39F7D9BBB8FE19F
:1001F0009EE40197F1F700C0000090819111D4CFE7
:100200000895982F907F95BB9BB39F7E9BBB9BB31C
:1002100090629BBBEFE0F7E23197F1F700C000007E
:100220009BB39F7D9BBBF0E18F9FC001112485BBD9
:100230008BB380628BBB8FE097E20197F1F700C030
:1002400000008BB38F7D8BBBEFE1FEE43197F1F7BC
:1002500000C00000089581E00E940101089582E03D
:100260000E94010188E20E9401010E942B018FE09F
:1002700097E20197F1F700C000008CE00E940101B5
:100280008FE097E20197F1F700C0000082E80E943A
:1002900001018FE097E20197F1F700C0000080E6CE
:1002A00090E00E94D2008FE39CE90197F1F700C033
:1002B000000082E80E9401018DE890E00E94D200D7
:1002C0008FE097E20197F1F700C0000082E80E94FA
:1002D00001018DE690E00E94D2008FE097E2019745
:1002E000F1F700C0000086EC0E9401018AE790E06F
:1002F0000E94D2008FE097E20197F1F700C0000062
:10030000089596B1906196B92FE738E391E02150B6
:1003100030409040E1F700C0000097B1907F97B95E
:1003200097B1892B87B986B1806486B924B185B12C
:1003300090E0982F8827822B089587B1806487B931
:1003400086B1806886B986B1806486B986B18760D7
:1003500086B908950F931F93CF93DF9300D000D0F9
:1003600000D0CDB7DEB782B38F7D82BB2FE788E3A5
:1003700091E0215080409040E1F700C00000FE0174
:10038000319686E0DF011D928A95E9F780E2898344
:1003900080E00E948101BC01990F880B990B0E949B
:1003A000C00828E638EE4FE95BE30E94750922B3E6
:1003B000243D39F42AE037ED43EA5CE30E944C081F
:1003C00024C022B3253D69F42AE037ED43EA5EE319
:1003D0000E94DA072DEC3CEC4CE45EE30E944C08F2
:1003E00014C022B3263D69F42AE939E949E95EE3FC
:1003F0000E94DA0721E73DE34AEF5FE30E944C08E1
:1004000004C060E070E080E090E09F938F937F9362
:100410006F9380E890E09F938F938E010F5F1F4F43
:100420001F930F930E94C60E82E80E94010185E887
:1004300090E00E94D200BFE728E381E0B150204065
:100440008040E1F700C0000086E80E94010183E9D6
:1004500090E00E94D2009FE7A8E3B1E09150A04055
:10046000B040E1F700C0000086E80E940101C80129
:100470000E94D2008DE80E9401018FEC90E00E9462
:10048000D2002FE788E391E0215080409040E1F7CF
:1004900000C0000080EC0E94010189E890E00E9409
:1004A000D200AFE7B8E321E0A150B0402040E1F72F
:1004B00000C000000FB6F894DEBF0FBECDBF269679
:1004C0000FB6F894DEBF0FBECDBFDF91CF911F9165
:1004D0000F9108950F931F93CF93DF9300D000D017
:1004E00000D0CDB7DEB782B38F7D82BB2FE788E324
:1004F00091E0215080409040E1F700C000008E0163
:100500000F5F1F4F86E0F80111928A95E9F780E2AC
:10051000898380E00E948101BC01990F880B990BAF
:100520000E94C00828E638EE4FE95BE30E94750997
:1005300020E030E040E251E40E9475099F938F93E0
:100540007F936F9380E890E09F938F931F930F9317
:100550000E94C60E82E80E9401018AE990E00E9492
:10056000D2008FE097E20197F1F700C0000086E823
:100570000E94010184E990E00E94D200EFE0F7E2DE
:100580003197F1F700C0000086E80E940101C80120
:100590000E94D2008DE80E9401018EE990E00E9445
:1005A000D2008FE097E20197F1F700C0000080ECE5
:1005B0000E94010189E890E00E94D200EFE0F7E29A
:1005C0003197F1F700C000000FB6F894DEBF0FBE00
:1005D000CDBF26960FB6F894DEBF0FBECDBFDF911C
:1005E000CF911F910F9108950F931F93CF93DF9396
:1005F00000D000D000D0CDB7DEB782B3806282BB1E
:100600002FE788E391E0215080409040E1F700C05F
:100610000000FE01319686E0DF011D928A95E9F720
:1006200080E2898380E00E948101BC01990F880BE0
:10063000990B0E94C00828E638EE4FE95BE30E9460
:10064000750922B3243F39F42AE037ED43EA5CE32D
:100650000E944C0824C022B3253F69F42AE037EDFC
:1006600043EA5EE30E94DA072DEC3CEC4CE45EE3E7
:100670000E944C0814C022B3263F69F42AE939E9E4
:1006800049E95EE30E94DA0721E73DE34AEF5FE3D1
:100690000E944C0804C060E070E080E090E09F930E
:1006A0008F937F936F9380E890E09F938F938E0159
:1006B0000F5F1F4F1F930F930E94C60E82E80E9488
:1006C000010185E890E00E94D2008FE097E2019757
:1006D000F1F700C0000086E80E94010183E990E084
:1006E0000E94D200AFE0B7E21197F1F700C000001E
:1006F00086E80E940101C8010E94D2008DE80E9494
:1007000001018FEC90E00E94D2008FE097E2019708
:10071000F1F700C0000080EC0E94010189E890E040
:100720000E94D200AFE0B7E21197F1F700C00000DD
:100730000FB6F894DEBF0FBECDBF26960FB6F89465
:10074000DEBF0FBECDBFDF91CF911F910F910895F6
:100750000F931F93CF93DF9300D000D000D0CDB77D
:10076000DEB782B3806282BB2FE788E391E021503D
:1007700080409040E1F700C000008E010F5F1F4FE6
:1007800086E0F80111928A95E9F780E2898380E09A
:100790000E948101BC01990F880B990B0E94C0082F
:1007A00028E638EE4FE95BE30E94750920E030E06F
:1007B00040E251E40E9475099F938F937F936F935A
:1007C00080E890E09F938F931F930F930E94C60E33
:1007D00082E80E9401018AE990E00E94D2008FE045
:1007E00097E20197F1F700C0000086E80E9401013E
:1007F00084E990E00E94D200EFE0F7E23197F1F750
:1008000000C0000086E80E940101C8010E94D200D9
:100810008DE80E9401018EE990E00E94D2008FE0F5
:1008200097E20197F1F700C0000080EC0E940101FF
:1008300089E890E00E94D200EFE0F7E23197F1F70B
:1008400000C000000FB6F894DEBF0FBECDBF2696E5
:100850000FB6F894DEBF0FBECDBFDF91CF911F91D1
:100860000F9108958F929F92AF92BF92CF92DF9295
:10087000EF92FF920F931F93CF93DF9300D000D09E
:1008800000D0CDB7DEB7FE01319686E0DF011D92C4
:100890008A95E9F780E2898381E00E948101BC01A9
:1008A000990F880B990B0E94C00828E638EE4FE993
:1008B0005BE30E9475096B017C0182B38730E9F428
:1008C00020E030E049E353E4C701B6010E94750916
:1008D0004B015C01A701960160E070E080EA90E4C2
:1008E0000E94DA079B01AC01C501B4010E944C08CB
:1008F000162F072FF82EE92E64C082B38734E9F44F
:1009000020E03AEE4CE956E4C701B6010E947509B1
:100910004B015C01A701960160E070E080EA90E481
:100920000E94DA079B01AC01C501B4010E944C088A
:10093000162F072FF82EE92E44C082B38738E9F42A
:1009400020E034E244EF58E4C701B6010E94750983
:100950004B015C01A701960160E070E080EA90E441
:100960000E94DA079B01AC01C501B4010E944C084A
:10097000162F072FF82EE92E24C082B3873CE9F406
:1009800020E034E244E759E4C701B6010E9475094A
:100990004B015C01A701960160E070E080EA90E401
:1009A0000E94DA079B01AC01C501B4010E944C080A
:1009B000162F072FF82EE92E04C010E000E0F12CCE
:1009C000E12C80E80E94010180EA90E00E94D200C0
:1009D0008FE097E20197F1F700C0000020E030E0DF
:1009E0004AE754E4612F702F8F2D9E2D0E947009CD
:1009F00088230CF44CC020E034E244E759E4612F32
:100A0000702F8F2D9E2D0E94470888230CF03FC029
:100A100020E030E04AE754E4612F702F8F2D9E2DA7
:100A20000E944C089F938F937F936F9380E890E090
:100A30009F938F938E010F5F1F4F1F930F930E9401
:100A4000C60E84E80E94010181E990E00E94D20074
:100A5000AFE0B7E21197F1F700C0000084E80E9410
:100A60000101C8010E94D2008CE80E94010184EAC1
:100A700090E00E94D2008FE097E20197F1F700C06A
:100A800000000FB6F894DEBF0FBECDBF80C020E0DF
:100A900034E244E759E4612F702F8F2D9E2D0E9480
:100AA000700988230CF43FC020E034E244E759E4A5
:100AB000612F702F8F2D9E2D0E944C089F938F9336
:100AC0007F936F9380E890E09F938F938E010F5FE9
:100AD0001F4F1F930F930E94C60E84E80E940101CE
:100AE00081E990E00E94D2008FE097E20197F1F750
:100AF00000C0000084E80E940101C8010E94D200E9
:100B00008CE80E94010189EA90E00E94D200AFE0E7
:100B1000B7E21197F1F700C000000FB6F894DEBFFE
:100B20000FBECDBF34C0EF92FF920F931F9380E8AA
:100B300090E09F938F938E010F5F1F4F1F930F9332
:100B40000E94C60E84E80E94010181E990E00E94A3
:100B5000D200AFE0B7E21197F1F700C0000084E8DF
:100B60000E940101C8010E94D2008CE80E9401018C
:100B70008EEA90E00E94D2008FE097E20197F1F7B1
:100B800000C000000FB6F894DEBF0FBECDBF2696A2
:100B90000FB6F894DEBF0FBECDBFDF91CF911F918E
:100BA0000F91FF90EF90DF90CF90BF90AF909F900C
:100BB0008F9008950E942B018FE097E20197F1F743
:100BC00000C000008CE00E9401018FE097E20197D5
:100BD000F1F700C0000086E80E9401018FE097E273
:100BE0000197F1F700C0000083EB90E00E94D20073
:100BF0008FE097E20197F1F700C0000086EC0E94B9
:100C0000010188EB90E00E94D2008FE097E201970B
:100C1000F1F700C0000008958EEF88BBB49908C0BA
:100C20008FE697E10197F1F700C0000087E3089590
:100C3000B59908C08FE697E10197F1F700C0000071
:100C400088E30895B69908C08FE697E10197F1F718
:100C500000C0000089E30895B79908C08FE697E1C6
:100C60000197F1F700C000008FE208958DEF88BB77
:100C7000B49908C08FE697E10197F1F700C0000032
:100C800084E30895B59908C08FE697E10197F1F7DD
:100C900000C0000085E30895B69908C08FE697E18B
:100CA0000197F1F700C0000086E30895B79908C0E6
:100CB0008FE697E10197F1F700C000008AE20895FE
:100CC0008BEF88BBB49908C08FE697E10197F1F7E5
:100CD00000C0000081E30895B59908C08FE697E150
:100CE0000197F1F700C0000082E30895B69908C0AB
:100CF0008FE697E10197F1F700C0000083E30895C4
:100D0000B79908C08FE697E10197F1F700C000009E
:100D10008DE2089587EF88BBB49908C08FE697E10C
:100D20000197F1F700C0000083E40895B59908C069
:100D30008FE697E10197F1F700C0000080E3089586
:100D4000B69908C08FE697E10197F1F700C000005F
:100D50008DE30895B79908C08FE697E10197F1F701
:100D600000C000008BE2089580E0089580EF8ABB08
:100D70009FEF91BB96EC92BB9FE097BB88BB0E9414
:100D80002F018FE19EE40197F1F700C000000E945F
:100D90009D010E940C06C82F8823D9F390E0FC0126
:100DA000BA97E031F10508F0FBC0E65DFF4F0C9407
:100DB0005F0D8BEC82BB0E94DA05F2C00E942B0112
:100DC0008FE097E20197F1F700C000008CE00E94ED
:100DD00001018FE097E20197F1F700C0000082E87F
:100DE0000E9401018FE097E20197F1F700C0000037
:100DF0008DEB90E00E94D2008FE097E20197F1F72F
:100E000000C0000085EC0E9401018AEC90E00E9485
:100E1000D2008FE097E20197F1F700C00000C0C058
:100E20000E942B018FE097E20197F1F700C00000CC
:100E30008CE00E9401018FE097E20197F1F700C07A
:100E4000000082E80E9401018FE097E20197F1F72C
:100E500000C0000082ED90E00E94D2008FE097E297
:100E60000197F1F700C0000083EC0E9401018FEDB3
:100E700090E00E94D2008FE097E20197F1F700C066
:100E800000008EC086ED82BB0E94DA0589C085ED28
:100E900082BB0E94DA0584C084ED82BB0E94DA0521
:100EA0007FC087E082BB0E942B0105C00E940C0618
:100EB000C82F0E943204C433C9F3CC23B9F370C0E5
:100EC00087E482BB0E942B0105C00E940C06C82F3C
:100ED0000E943204C533C9F3CC23B9F361C087E85B
:100EE00082BB0E942B0105C00E940C06C82F0E94E5
:100EF0003204C633C9F3CC23B9F352C087EC82BBAA
:100F00000E942B0105C00E940C06C82F0E943204CB
:100F1000CA32C9F3CC23B9F343C082B3863D61F032
:100F200082B3853D49F082B3843D59F405C00E94E7
:100F30000C06C82F0E94F402CB32C9F3CC23B9F3BC
:100F40002FC082B38B3C61F505C00E940C06C82FF0
:100F50000E94A803CB32C9F3CC23B9F321C082B3DA
:100F6000863D61F082B3853D49F082B3843D59F4FA
:100F700005C00E940C06C82F0E94AA01CD32C9F3F9
:100F8000CC23B9F30DC082B38B3C51F405C00E9451
:100F90000C06C82F0E946A02CD32C9F3CC23B9F3E4
:100FA0009FE728E381E0915020408040E1F700C0B6
:100FB0000000EFCE5058BB27AA270E94F2070C94DE
:100FC00036090E94280938F00E942F0920F039F4D0
:100FD0009F3F19F426F40C9425090EF4E095E7FBE5
:100FE0000C941F09E92F0E94470958F3BA176207AA
:100FF00073078407950720F079F4A6F50C94690926
:101000000EF4E0950B2EBA2FA02D0B01B901900123
:101010000C01CA01A0011124FF27591B99F0593F67
:1010200050F4503E68F11A16F040A22F232F342FAF
:101030004427585FF3CF469537952795A795F040FD
:101040005395C9F77EF41F16BA0B620B730B840B12
:10105000BAF09150A1F0FF0FBB1F661F771F881FCA
:10106000C2F70EC0BA0F621F731F841F48F4879522
:1010700077956795B795F7959E3F08F0B0CF939514
:10108000880F08F09927EE0F9795879508950E948D
:10109000FB0808F481E008950E9460080C9436096A
:1010A0000E942F0958F00E94280940F029F45F3F60
:1010B00029F00C941F0951110C946A090C9425090C
:1010C0000E94470968F39923B1F3552391F3951BC7
:1010D000550BBB27AA2762177307840738F09F5F59
:1010E0005F4F220F331F441FAA1FA9F335D00E2EC6
:1010F0003AF0E0E832D091505040E695001CCAF733
:101100002BD0FE2F29D0660F771F881FBB1F2617F5
:1011100037074807AB07B0E809F0BB0B802DBF01CC
:10112000FF2793585F4F3AF09E3F510578F00C949B
:101130001F090C946A095F3FE4F3983ED4F3869547
:1011400077956795B795F7959F5FC9F7880F911DBC
:101150009695879597F90895E1E0660F771F881FA8
:10116000BB1F621773078407BA0720F0621B730B5B
:10117000840BBA0BEE1F88F7E0950895E89409C038
:1011800097FB3EF490958095709561957F4F8F4FBA
:101190009F4F9923A9F0F92F96E9BB279395F695D0
:1011A000879577956795B795F111F8CFFAF4BB0F4E
:1011B00011F460FF1BC06F5F7F4F8F4F9F4F16C0B2
:1011C000882311F096E911C0772321F09EE8872F3C
:1011D000762F05C0662371F096E8862F70E060E0F8
:1011E0002AF09A95660F771F881FDAF7880F969571
:1011F000879597F90895990F0008550FAA0BE0E815
:10120000FEEF16161706E807F907C0F012161306C8
:10121000E407F50798F0621B730B840B950B39F408
:101220000A2661F0232B242B252B21F408950A266E
:1012300009F4A140A6958FEF811D811D089597F9AE
:101240009F6780E870E060E008959FEF80EC08956C
:1012500000240A9416161706180609060895002495
:101260000A9412161306140605060895092E03940F
:10127000000C11F4882352F0BB0F40F4BF2B11F483
:1012800060FF04C06F5F7F4F8F4F9F4F089557FDE2
:101290009058440F551F59F05F3F71F04795880FE4
:1012A00097FB991F61F09F3F79F08795089512167B
:1012B00013061406551FF2CF4695F1DF08C0161627
:1012C00017061806991FF1CF8695710561050894D8
:1012D0000895E894BB2766277727CB0197F90895EF
:1012E0000E94FB0808F48FEF08950E9488090C946F
:1012F00036090E94280938F00E942F0920F0952312
:1013000011F00C941F090C94250911240C946A09FE
:101310000E94470970F3959FC1F3950F50E0551F48
:10132000629FF001729FBB27F00DB11D639FAA273A
:10133000F00DB11DAA1F649F6627B00DA11D661F89
:10134000829F2227B00DA11D621F739FB00DA11DAA
:10135000621F839FA00D611D221F749F3327A00D64
:10136000611D231F849F600D211D822F762F6A2F00
:1013700011249F5750409AF0F1F088234AF0EE0F65
:10138000FF1FBB1F661F771F881F91505040A9F792
:101390009E3F510580F00C941F090C946A095F3F31
:1013A000E4F3983ED4F3869577956795B795F795CE
:1013B000E7959F5FC1F7FE2B880F911D9695879546
:1013C00097F90895A0E1B0E0E8EEF9E00C94650D1E
:1013D0007C011B016A01FC0117821682838181FF57
:1013E00044C39E012F5F3F4F3901F7019381F10103
:1013F00093FD859193FF81911F01882309F431C3E7
:10140000853239F493FD859193FF81911F018532D7
:1014100039F4B70190E00E948A0E56016501E5CFCC
:1014200010E0512C912CFFE1F915D8F08B3279F0B6
:1014300038F4803279F08332A1F4F92DF0612EC0B6
:101440008D3261F0803369F4292D21602DC0392D52
:101450003260932E892D8460982E2AC0E92DE86091
:1014600015C097FC2DC020ED280F2A3088F496FE79
:1014700006C03AE0139F200D1124122F19C08AE0F4
:10148000589E200D1124522EE92DE0629E2E10C090
:101490008E3231F496FCE5C2F92DF0649F2E08C01F
:1014A0008C3621F4292D2068922E02C0883641F412
:1014B000F10193FD859193FF81911F018111B3CFBC
:1014C0009BEB980F933020F4992D9061805E07C0BC
:1014D0009BE9980F933008F066C1992D9F7E96FF87
:1014E00016E09F73992E853619F49064992E08C0E2
:1014F000863621F4392F3068932E02C01111115015
:1015000097FE07C01C3350F444244394410E27E057
:101510000BC0183038F027E017E005C027E09CE347
:10152000492E02C0212F412C560184E0A80EB11C87
:10153000F6016081718182819381042DA3010E9453
:101540009C0D6C01F981FC87F0FF02C0F3FF06C01F
:1015500091FC06C092FE06C000E205C00DE203C089
:101560000BE201C000E08C858C7019F001115AC2A9
:101570009BC297FE10C04C0CFC85F4FF04C08A810E
:10158000813309F44A94141474F528E0241578F58D
:1015900088E0482E2CC096FC2AC0812F90E08C1544
:1015A0009D059CF03CEFC3163FEFD30674F0892DE8
:1015B0008068982E0AC0E2E0F0E0EC0FFD1FE10F1A
:1015C000F11D8081803319F411501111F4CF97FE71
:1015D0000EC044244394410E812F90E0C816D906D2
:1015E0002CF41C1904C04424439401C010E097FE5D
:1015F00006C01C141D0434F4C601019605C085E024
:1016000090E002C081E090E001110196112331F0D9
:10161000212F30E02F5F3F4F820F931F252D30E0A9
:101620008217930714F4581A01C0512C892D897020
:1016300049F4552039F0B70180E290E00E948A0E0B
:101640005A94F7CF002329F0B701802F90E00E9431
:101650008A0E93FC09C0552039F0B70180E390E071
:101660000E948A0E5A94F7CF97FE4CC04601D7FECF
:1016700002C0812C912CC60188199909F301E80F49
:10168000F91FFE87ED87960124193109388B2F87C2
:10169000012F10E01195019511093FEF8316930674
:1016A00029F4B7018EE290E00E948A0EC814D90492
:1016B0004CF08F8598898815990524F4ED85FE8571
:1016C000818101C080E3F1E08F1A91082D853E856C
:1016D0002F5F3F4F3E872D87801691062CF0B70174
:1016E00090E00E948A0ED9CFC814D90441F49A819F
:1016F000963320F4953319F43C8534FF81E3B70128
:1017000090E04EC08A81813319F09C859F7E9C8732
:10171000B70190E00E948A0E111105C094FC18C018
:1017200085E690E017C0B7018EE290E00E948A0E35
:101730001E5F82E001E0080FF301E80FF11D8081D8
:10174000B70190E00E948A0E802F0113F3CFE6CFFD
:1017500085E490E0B7010E948A0ED7FC06C0C11450
:10176000D10441F4EC85E4FF05C0D194C194D108C3
:101770008DE201C08BE2B70190E00E948A0E80E307
:101780002AE0C216D1042CF08F5FFAE0CF1AD108FC
:10179000F7CFB70190E00E948A0EB701C601C0964C
:1017A0000E948A0E54C1833631F0833779F0833535
:1017B00009F056C020C0560132E0A30EB11CF6015C
:1017C0008081898301E010E0630112C05601F2E0DC
:1017D000AF0EB11CF601C080D18096FE03C0612F10
:1017E00070E002C06FEF7FEFC6010E947F0E8C0198
:1017F000F92DFF7714C0560122E0A20EB11CF601AC
:10180000C080D18096FE03C0612F70E002C06FEFF0
:101810007FEFC6010E94740E8C01F92DF0689F2E97
:10182000F3FD1AC0852D90E008171907A8F4B70139
:1018300080E290E00E948A0E5A94F4CFF60197FC61
:10184000859197FE81916F01B70190E00E948A0E09
:1018500051105A94015011090115110579F7F7C07B
:10186000843611F0893661F5560197FE09C024E0EF
:10187000A20EB11CF60160817181828193810AC040
:10188000F2E0AF0EB11CF60160817181072E000CF1
:10189000880B990BF92DFF769F2E97FF09C0909525
:1018A0008095709561957F4F8F4F9F4FF0689F2E69
:1018B0002AE030E0A3010E94E80EC82EC6183FC0FF
:1018C000092D853721F40F7E2AE030E01DC0097F05
:1018D0008F3691F018F4883559F0C3C0803719F06D
:1018E000883711F0BEC0006104FF09C0046007C062
:1018F00094FE08C0066006C028E030E005C020E184
:1019000030E002C020E132E0560107FF09C084E068
:10191000A80EB11CF601608171818281938108C09B
:10192000F2E0AF0EB11CF6016081718180E090E0C1
:10193000A3010E94E80EC82EC6180F77902E96FEBF
:101940000BC0092D0E7FC11650F494FE0AC092FC04
:1019500008C0092D0E7E05C0DC2C092D03C0DC2C2F
:1019600001C0D12E04FF0DC0FE01EC0DF11D8081E0
:10197000803311F4097E09C002FF06C0D394D394CA
:1019800004C0802F867809F0D39403FD11C000FFB6
:1019900006C01C2DD51480F4150D1D190DC0D514CD
:1019A00058F4B70180E290E00E948A0ED394F7CFFA
:1019B000D51410F45D1801C0512C04FF10C0B701FC
:1019C00080E390E00E948A0E02FF17C001FD03C071
:1019D00088E790E002C088E590E0B7010CC0802F56
:1019E000867859F001FF02C08BE201C080E207FD5A
:1019F0008DE2B70190E00E948A0EC11638F4B7015B
:101A000080E390E00E948A0E1150F7CFCA94F30150
:101A1000EC0DF11D8081B70190E00E948A0EC1108B
:101A2000F5CF15C0F4E0F51560F584E0581A93FE83
:101A30001FC0011127C02C8523FF2AC004E710E036
:101A4000392D3071932EF8018491811124C05520D5
:101A500009F4E4CCB70180E290E00E948A0E5A9427
:101A6000F6CFF7018681978126C08FEF9FEF23C0C5
:101A7000B70180E290E00E948A0E5A945110F8CF8C
:101A8000D8CF512CB701802F90E00E948A0ED3CF7F
:101A900008E710E0D5CF91108052B70190E00E9486
:101AA0008A0E0F5F1F4FCFCF23E0251510F483E080
:101AB000BDCF512CC0CF6096E2E10C94810DEE0FAA
:101AC000FF1F0590F491E02D09942F923F924F92C1
:101AD0005F926F927F928F929F92AF92BF92CF92BE
:101AE000DF92EF92FF920F931F93CF93DF93CDB7C7
:101AF000DEB7CA1BDB0B0FB6F894DEBF0FBECDBF3F
:101B000009942A88398848885F846E847D848C840F
:101B10009B84AA84B984C884DF80EE80FD800C8118
:101B20001B81AA81B981CE0FD11D0FB6F894DEBFFB
:101B30000FBECDBFED010895283008F027E0332710
:101B4000DA01990F311D87FD9160009661057105DD
:101B500039F432602E5F3D9330E32A95E1F7089522
:101B60009F3F30F080387105610509F03C5F3C5FB4
:101B70003D93913008F08068911DDF93CF931F93C0
:101B80000F93FF92EF92192F987F9695E92F9695D4
:101B90009695E90FFF27EA52FF4F99273327EE2446
:101BA000FF24A701E70105900894079428F4360F55
:101BB000E71EF81E491F511D660F771F881F991FCA
:101BC0000694A1F70590079428F4E70EF81E491F24
:101BD000561FC11D770F881F991F661F0694A1F716
:101BE0000590079428F4F80E491F561FC71FD11DF2
:101BF000880F991F661F771F0694A1F70590079419
:101C000020F4490F561FC71FD81F990F661F771F53
:101C1000881F0694A9F784911095177041F0D69506
:101C2000C79557954795F794E7941A95C1F7ECE750
:101C3000F0E0689415901591359165919591059016
:101C40007FE27395E118F10A430B560BC90BD009DB
:101C5000C0F7E10CF11E431F561FC91FD01D7EF4B3
:101C6000703311F48A95E6CFE894015030F0080FF4
:101C70000AF40027021708F4202F2395022F7A3345
:101C800028F079E37D932A95E9F710C07D932A9592
:101C900089F6069497956795379517951794E118E7
:101CA000F10A430B560BC90BD00998F023957E918E
:101CB00073957A3308F070E37C932013B8F77E9124
:101CC00070617D9330F0839571E37D9370E32A9585
:101CD000E1F71124EF90FF900F911F91CF91DF91C9
:101CE000992787FD90950895FC01059061507040FB
:101CF0000110D8F7809590958E0F9F1F0895FC01D5
:101D00006150704001900110D8F7809590958E0F2A
:101D10009F1F08950F931F93CF93DF93FB012381A0
:101D200021FD03C08FEF9FEF2CC022FF16C046811C
:101D30005781248135814217530744F4A081B18132
:101D40009D012F5F3F4F318320838C932681378104
:101D50002F5F3F4F3783268314C08B01EC01FB01BB
:101D60000084F185E02D0995892BE1F6D8011696BE
:101D70008D919C911797019617969C938E93169729
:101D8000CE01DF91CF911F910F910895AEE0B0E0A9
:101D9000ECECFEE00C94730D0D891E8986E08C83BB
:101DA0001A8309838FEF9FE79E838D83AE01475E81
:101DB0005F4F6F89788DCE0101960E94E209EF8115
:101DC000F885E00FF11F10822E96E4E00C948F0D41
:101DD000FA01AA27283051F1203181F1E8946F935C
:101DE0006E7F6E5F7F4F8F4F9F4FAF4FB1E03ED002
:101DF000B4E03CD0670F781F891F9A1FA11D680FA0
:101E0000791F8A1F911DA11D6A0F711D811D911DD2
:101E1000A11D20D009F468943F912AE0269F112447
:101E20003019305D3193DEF6CF010895462F4770AB
:101E3000405D4193B3E00FD0C9F7F6CF462F4F7006
:101E4000405D4A3318F0495D31FD4052419302D064
:101E5000A9F7EACFB4E0A69597958795779567950A
:101E6000BA95C9F700976105710508959B01AC010A
:101E70000A2E06945795479537952795BA95C9F731
:101E8000620F731F841F951FA01D0895F894FFCF44
:101E90005768696368206D6F6465203F00313A566A
:101EA0006F6C7420323A416D7000333A4F686D00A8
:101EB000252E32660049203D0020202020202020B1
:101EC0002020202020202020200056203D005600E9
:101ED00052203D004B4F686D004D4F686D004F68BC
:101EE0006D20002B3A4443002D3A414300373A32EB
:101EF0006D4120383A32306D4100393A3230306D20
:101F00004100343A35353020353A3530304B0036E3
:0A1F10003A314D202A3A31304D00DD
:00000001FF
